{
  "contractName": "Splitter",
  "abi": [
    {
      "constant": true,
      "inputs": [
        {
          "name": "",
          "type": "uint256"
        }
      ],
      "name": "recipients",
      "outputs": [
        {
          "name": "balance",
          "type": "uint256"
        },
        {
          "name": "holder",
          "type": "address"
        }
      ],
      "payable": false,
      "stateMutability": "view",
      "type": "function"
    },
    {
      "inputs": [
        {
          "name": "_bob",
          "type": "address"
        },
        {
          "name": "_carol",
          "type": "address"
        }
      ],
      "payable": true,
      "stateMutability": "payable",
      "type": "constructor"
    },
    {
      "anonymous": false,
      "inputs": [
        {
          "indexed": false,
          "name": "_weis",
          "type": "uint256"
        }
      ],
      "name": "LogSplittedSucceded",
      "type": "event"
    },
    {
      "anonymous": false,
      "inputs": [
        {
          "indexed": false,
          "name": "_owner",
          "type": "uint256"
        }
      ],
      "name": "LogEtherSended",
      "type": "event"
    },
    {
      "constant": false,
      "inputs": [],
      "name": "sendEther",
      "outputs": [],
      "payable": true,
      "stateMutability": "payable",
      "type": "function"
    }
  ],
  "bytecode": "0x60806040526040516040806103da833981018060405281019080805190602001909291908051906020019092919050505060008273ffffffffffffffffffffffffffffffffffffffff161415151561005657600080fd5b60008173ffffffffffffffffffffffffffffffffffffffff161415151561007c57600080fd5b33600160006101000a81548173ffffffffffffffffffffffffffffffffffffffff021916908373ffffffffffffffffffffffffffffffffffffffff1602179055506000600260006002811015156100cf57fe5b60020201600001819055506000600260016002811015156100ec57fe5b6002020160000181905550816002600060028110151561010857fe5b6002020160010160006101000a81548173ffffffffffffffffffffffffffffffffffffffff021916908373ffffffffffffffffffffffffffffffffffffffff160217905550806002600160028110151561015e57fe5b6002020160010160006101000a81548173ffffffffffffffffffffffffffffffffffffffff021916908373ffffffffffffffffffffffffffffffffffffffff1602179055505050610226806101b46000396000f30060806040526004361061004c576000357c0100000000000000000000000000000000000000000000000000000000900463ffffffff1680630e29df2214610051578063d1bc76a11461005b575b600080fd5b6100596100cf565b005b34801561006757600080fd5b50610086600480360381019080803590602001909291905050506101b1565b604051808381526020018273ffffffffffffffffffffffffffffffffffffffff1673ffffffffffffffffffffffffffffffffffffffff1681526020019250505060405180910390f35b600080341115156100df57600080fd5b34905060006002828115156100f057fe5b061415610112576000808190555060028181151561010a57fe5b04905061012d565b600160008190555060026001820381151561012957fe5b0490505b806002600060028110151561013e57fe5b6002020160000160008282540192505081905550806002600160028110151561016357fe5b60020201600001600082825401925050819055507f210763f868428b8691ddfafdf6a264694756dc4d80a0f0bed889dee3f9e54d56816040518082815260200191505060405180910390a150565b6002816002811015156101c057fe5b600202016000915090508060000154908060010160009054906101000a900473ffffffffffffffffffffffffffffffffffffffff169050825600a165627a7a72305820ec104df43e745cbee77f5e3698f5fa9dd4234f9022face1cd9e6eb1ae2082cba0029",
  "source": "pragma solidity ^0.4.24;\n\ncontract Splitter {\n\n    uint ownerWeis;\n    address owner;\n\n    WalletOwner[2] public recipients;\n\n    struct WalletOwner {\n        uint balance;\n        address holder;\n    }\n\n    modifier validEtherSend {\n        require(msg.value > 0);\n        _;\n    }\n\n    event LogSplittedSucceded(uint _weis);\n    event LogEtherSended(uint _owner);\n\n    constructor(address _bob, address _carol) public payable {\n        require(_bob != 0);\n        require(_carol != 0);\n        owner = msg.sender;\n        recipients[0].balance = 0;\n        recipients[1].balance = 0;\n        recipients[0].holder = _bob;\n        recipients[1].holder = _carol;\n    }\n\n    function sendEther() public validEtherSend payable {\n        uint amount = msg.value;\n        if (amount % 2 == 0) {\n            ownerWeis = 0;\n            amount = amount / 2;\n        } else {\n            ownerWeis = 1;\n            amount = (amount - 1) / 2;\n        }\n        recipients[0].balance += amount;\n        recipients[1].balance += amount;\n        emit LogEtherSended(amount);\n    }\n}\n",
  "sourcePath": "/Users/wojciechkalinski/workspace-eth/wmk-splitter/contracts/Splitter.sol",
  "compiler": {
    "name": "solc",
    "version": "0.4.24+commit.e67f0147.Emscripten.clang"
  },
  "schemaVersion": "2.0.1",
  "updatedAt": "2018-10-08T06:25:26.563Z"
}